:020000040800F2
:10000000002000200502000891010008930100086B
:100010009501000897010008990100080000000000
:100020000000000000000000000000009B0100082C
:100030009D010008000000009F010008A1010008C8
:100040005102000851020008510200085102000844
:100050005102000851020008510200085102000834
:100060005102000851020008510200085102000824
:100070005102000851020008510200085102000814
:10008000510200085102000800000000510200085F
:1000900051020008510200085102000851020008F4
:1000A00051020008510200085102000851020008E4
:1000B000510200080000000051020008000000008A
:1000C000510200080000000051020008000000007A
:1000D0000000000000000000000000000000000020
:1000E00000000000000000005102000800000000B5
:1000F0000000000000000000000000000000000000
:100100005102000800000000000000000000000094
:1001100000000000000000000000000000000000DF
:1001200000000000000000000000000000000000CF
:1001300000000000000000000000000000000000BF
:100140000000000000000000000000005102000854
:1001500010B5054C237833B9044B13B10448AFF301
:1001600000800123237010BD340400200000000033
:100170002406000808B5034B1BB103490348AFF33D
:10018000008008BD0000000038040020240600089C
:10019000FEE7FEE7FEE7FEE7FEE7FEE7FEE7FEE737
:1001A00008B500F025F808BD08B500F001F8FEE735
:1001B0000B4B1B680B4AA2FB03239B09013BB3F1CA
:1001C000807F0CD2084A5360084BF02183F823103B
:1001D000002191600720106083F823107047FEE72C
:1001E00000000020D34D621010E000E000ED00E0C0
:1001F000034B1B681BB1024A1368013B1360704735
:10020000500400200C488546002103E00B4B5B584E
:10021000435004310A480B4B42189A42F6D30A4A1B
:1002200002E0002342F8043B084B9A42F9D300F065
:100230006DF8FFF7B9FF7047002000204C0600085A
:100240000000002034040020340400207804002042
:10025000FEE70000284A136843F48033136000234C
:100260000133254A126812F4003F03D14FF6FF72A2
:100270009342F5D1204B1B6813F4003F3BD01F4B3A
:100280001A681A601A6842F400521A601A6842F436
:1002900080621A601A6822F0036222F470221A60E7
:1002A000174A116821F0404121F00F0111601968CF
:1002B00041F0006141F4A0211960136843F001038B
:1002C0001360136813602C3A136843F08073136053
:1002D000094B1B6813F0007FFAD0084B1A6822F014
:1002E00003021A601A6842F002021A60034B1B688C
:1002F00013F0080FFAD070470010024004100240BB
:100300002C10024008B5FFF7A5FF08BD10B582B05C
:10031000744A136843F001031360A2F58732A2F513
:10032000FE72136843F0701313606F4B1B6803F089
:100330000603062B58D06C4B1B6813F4005F53D098
:100340006A4B6B4919606B4A1A60043319601A6072
:1003500008331A6842F020021A601A6842F040021C
:100360001A60654B1B6813F0010FFAD1634B1A68D2
:1003700022F020021A601A6842F010021A600C3350
:100380001B6813F0060F47D15D4BA5221A80564A11
:100390001368C3F3072303F0DF035A490B80136884
:1003A000C3F3074302310B8013681B0E564A1380B8
:1003B000564A1368DBB204310B801368C3F307237A
:1003C000534A13804C4B1B6813F0010FFAD14B4B6F
:1003D0001A6822F010021A601A6822F400721A6079
:1003E0001A6842F080021A604A4A136843F0010317
:1003F0001360484B1B6813F0020FFAD0464A13688B
:1004000043F08003136000230193019B4F2B0DD811
:10041000019B01330193F8E7334B1B6803F006039C
:10042000022BB4D1364BBB221A80B0E73A4A13688C
:1004300043F0900313600023019302E0019B01331A
:100440000193019B4F2BF9D9334B1A6822F0030219
:100450001A6030490A6822F0867222F480320A60FB
:1004600019682E4A0A401A601A6822F0084222F4DB
:1004700074121A601A6822F440021A602C331A6847
:1004800022F0804222F040021A6025490A6822F0D8
:10049000404222F00F020A601A6822F4817222F0B0
:1004A00001021A601A6822F480321A601A6822F077
:1004B00000421A601B4A136823F0010313608C3258
:1004C000136823F4803313600024174B1C60C4337B
:1004D0001C60FFF717FF21464FF0006000F026F880
:1004E00002B010BD181002401C200240042002403F
:1004F00023016745AB89EFCD0C200240102002405C
:1005000000F8FF1F02F8FF1F06F8FF1F202002401F
:100510000AF8FF1F00100240041002400C00FF0800
:100520002C100240341002400810024021F06041BB
:1005300021F07F010143024B9960BFF34F8F704759
:1005400000ED00E0024B13B1024800F005B870471F
:100550000000000065050008002301461A46184601
:1005600000F01AB838B5084B084D5B1B9C1007D03B
:10057000043B1D44013C55F804399847002CF9D13F
:10058000BDE8384000F054B84C06000848060008A2
:10059000704700BF704700BF2DE9F047DFF880A02B
:1005A0000646DAF8000098460F469146FFF7F0FF3E
:1005B0001A4B1B68D3F8484124B365681F2D26DC0D
:1005C0005EB9AB1C0135DAF80000656044F82370B1
:1005D000FFF7E0FF0020BDE8F08704EB8503012171
:1005E000C3F88890D4F88821A9400A43022EC4F8A1
:1005F0008821C3F80881E4D1D4F88C311943C4F8B8
:100600008C11DEE703F5A674C3F84841D5E7DAF8A4
:100610000000FFF7BFFF4FF0FF30DCE73C060008AB
:1006200030040020F8B500BFF8BC08BC9E467047F7
:0C063000F8B500BFF8BC08BC9E4670473F
:04063C000800002092
:080640004505000875010008E2
:040648005101000854
:10064C0000F36F060000000000000000F402002020
:10065C005C030020C4030020000000000000000028
:10066C00000000000000000000000000000000007E
:10067C00000000000000000000000000000000006E
:10068C00000000000000000000000000000000005E
:10069C00000000000000000000000000000000004E
:1006AC00000000000000000000000000000000003E
:1006BC00000000000000000000000000000000002E
:1006CC00000000000000000000000000000000001E
:1006DC00000000000000000000000000000000000E
:1006EC0000000000000000000000000000000000FE
:1006FC0001000000000000000E33CDAB34126DE69B
:10070C00ECDE05000B000000000000000000000003
:10071C0000000000000000000000000000000000CD
:10072C0000000000000000000000000000000000BD
:10073C0000000000000000000000000000000000AD
:10074C00000000000000000000000000000000009D
:040A7C0054040020FE
:0400000508000205E8
:00000001FF
