:020000040800F2
:1000000038090020D10100088F020008870200088B
:100010008B02000881020008C903000800000000EC
:100020000000000000000000000000009302000833
:1000300085020008000000009102000895020008F7
:10004000EB010008EB010008EB010008EB010008E0
:10005000EB010008EB010008EB010008EB010008D0
:10006000EB010008EB010008EB010008EB010008C0
:10007000EB010008EB010008EB010008EB010008B0
:10008000EB010008EB010008EB010008EB010008A0
:10009000EB010008EB010008EB010008EB01000890
:1000A000EB010008EB010008EB010008EB01000880
:1000B000EB010008EB010008EB010008EB01000870
:1000C000EB010008EB010008EB010008EB01000860
:1000D000EB01000841030008EB010008EB010008F8
:1000E000EB010008EB010008EB010008EB01000840
:1000F000EB010008EB010008EB010008EB01000830
:10010000EB010008EB010008EB010008EB0100081F
:10011000EB010008EB010008EB010008EB0100080F
:10012000EB010008EB010008EB010008EB010008FF
:1001300000F002F800F03CF80AA090E8000C8244BD
:100140008344AAF10107DA4501D100F031F8AFF29A
:10015000090EBAE80F0013F0010F18BFFB1A43F0A5
:1001600001031847580A0000780A0000103A24BF1B
:1001700078C878C1FAD8520724BF30C830C144BF0C
:1001800004680C607047000000230024002500264E
:10019000103A28BF78C1FBD8520728BF30C148BFEA
:1001A0000B6070471FB500F004FD1FBD10B510BDFA
:1001B00000F033F81146FFF7F5FF00F0C1F900F049
:1001C00051F803B4FFF7F2FF03BC00F0FFF80000A2
:1001D0000948804709480047FEE7FEE7FEE7FEE7DB
:1001E000FEE7FEE7FEE7FEE7FEE7FEE70448054917
:1001F000054A064B704700009902000831010008CB
:10020000380100203809002038050020380500207A
:1002100070477047704770477047754600F02CF87C
:10022000AE4605006946534620F00700854618B0E3
:1002300020B5FFF7DBFFBDE820404FF000064FF090
:1002400000074FF000084FF0000B21F00701AC460B
:10025000ACE8C009ACE8C009ACE8C009ACE8C0092A
:100260008D46704710B50446AFF300802046BDE8C8
:100270001040FFF7A6BF000000487047D4000020E0
:1002800000BFFEE7704700BFFEE700BFFEE7704714
:10029000704770477047000008B52648006840F472
:1002A0007000244908602448006840F00100224999
:1002B000086000BF2048006800F002000028F9D064
:1002C00000BF1D48406840F080001B494860002086
:1002D000009002E00098401C009000985028F9D34C
:1002E0001548406840F09000134948600020009095
:1002F00002E00098401C009000985028F9D300BFFD
:100300000D48406820F003000B494860084600682B
:100310000A490840084908604FF41F0088600846F1
:10032000006820F48020086000204860C86200F067
:1003300001FB08BD88ED00E000100240FFFFF6FE63
:1003400010B51D491D4800F0ECFB10B31B4800F030
:100350003DFBC4B21A48008800F40040C8B91848F0
:10036000008800F4804060B10A2C03D000201449BA
:10037000088020E01248008840F4004010490880BE
:1003800019E00D2C06D10E48008840F480400C493D
:10039000088010E00A480088C0F30D0009490C5499
:1003A00007480088401C0649088008460088C7287E
:1003B00001DD0020088010BD050305000038014064
:1003C000080000200C00002000BFFEE700BF7047BF
:1003D00000214FF0E02211611146096921F004016A
:1003E00011610146C21700EB5272C2F3CF02014BFA
:1003F0001A8070470000002070B504464FF47A70F0
:1004000094FBF0F594FBF0F100FB114603E0074884
:1004100000F00EF86D1E002DF9D12EB14FF47A7157
:1004200006FB01F000F004F870BD000040420F0030
:100430000146114A12884A434FF0E0235A610022D4
:100440009A611A46126942F001021A6100BF4FF028
:10045000E022106900F001021AB100F48032002A93
:10046000F5D04FF0E022126922F001024FF0E023B4
:100470001A6100229A6170470000002041617047B4
:1004800001617047F0B5044616460025002201F0D0
:100490000F0501F0100747B1042E05D145F0030503
:1004A000E76B1F43E76300E0354300201EE00127B0
:1004B00087401F40C7B122684FEA800C0F2707FA18
:1004C0000CF7BA43870005FA07F73A43282904D105
:1004D000012787401F40676105E0482903D10127B4
:1004E00087401F4027612260471CB8B20828DED32E
:1004F000082022E0012787401F40E7B16268A0F191
:1005000008074FEA870C0F2707FA0CF7BA43A0F148
:100510000807BF0005FA07F73A43282904D1012745
:1005200087401F40676105E0482903D101278740C4
:100530001F4027616260471CB8B21028DAD3F0BDB3
:100540007820FFF745FF4FF4E13000F093FA40F2D6
:10055000046000F035F94FF40053032210210B48DA
:10056000FFF790FF11E04FF400510848FFF786FFB6
:100570004FF4FA70FFF740FF4FF400510348FFF7C4
:100580007FFF4FF4FA70FFF737FFECE700100140F0
:100590002DE9F04103460D46164600240027A046EB
:1005A0002A48006800F4E060B0F5E06F03D100BFB6
:1005B0004FF0040830E02548006800F4E060B0F532
:1005C000C06F03D101274FF0030825E01F480068E2
:1005D00000F4E060B0F5A06F02D10227B8461BE03E
:1005E0001A48006800F4E060B0F5806F03D103277B
:1005F0004FF0010810E01548006800F4E060B0F525
:10060000407F03D104274FF0000805E04FF4A060BD
:1006100000F020F80227B846C7F1040005FA00F4FC
:10062000C8F104010F20C8403040044324010848A9
:10063000C45403F01F01012088405911890001F1C1
:10064000E021C1F80001BDE8F08100000CED00E000
:1006500000E400E002490143024A116070470000D3
:100660000000FA050CED00E02DE9F04F8CB00746D4
:1006700000200A904AA090E8004CC068CDE905BE71
:10068000CDF810A007900FF21C1ADAE9000ACDE9A4
:10069000020A0FF2101ADAE9000ACDE9000A44480A
:1006A0004068C0F381000B900B9820B1012804D062
:1006B00002283FD103E03F4A3EE03E4A3CE03C484E
:1006C000406800F4803CBCF5803F12D13848C06AD5
:1006D00000F08048B8F1000F01D1364B00E0364BF6
:1006E0003348406800F40039B9F5003F02D15B0897
:1006F00000E0324B2E484068C0F383412C484068EC
:1007000000F0006008B141F010012948406800F095
:10071000804008B141F020010F2901D2891C06E078
:100720000F2903D33E2901D8491C00E03F2103FBD8
:1007300001F201E01F4A00BF00BF1D484068C0F33E
:10074000031504A8465D22FA06F419484068C0F370
:10075000022502A8465D24FA06F009901448406874
:10076000C0F3C2251DF8056024FA06F0089037B1E1
:10077000012F06D0022F06D0032F0AD106E00A92DD
:1007800008E00A9406E009980A9003E008980A90A5
:1007900000E000BF00BF0A980CB0BDE8F08F000079
:1007A0000000000000000000010203040607080921
:1007B0000010024000127A00006CDC0200093D00CB
:1007C000064A02EB9011096800F01F0301229A40CB
:1007D0001143024B03EB901211607047001002406E
:1007E000064A02EB9011096800F01F0301229A40AB
:1007F0009143024B03EB90121160704700100240CE
:10080000064A02EB9011096800F01F0301229A408A
:100810001143024B03EB901211607047001002402D
:10082000002000213F4A126842F480323D4B1A609A
:1008300000BF401C3B4A126802F4003119B94FF660
:10084000FF729042F5D1374A126802F400320AB9B9
:1008500000BFFEE7334AD26942F08052314BDA6181
:10086000314A126842F440422F4B1A602D4A5268B6
:100870002C4B5A601A4652685A601A46526842F423
:1008800080625A601A46526822F440325A601A4610
:10089000526842F440325A601A465268234B1A405A
:1008A000204B5A601A465268214B1A431D4B5A601E
:1008B0001A46126842F080721A6000BF194A126824
:1008C00002F00072002AF9D0174A126842F480320E
:1008D000154B1A6000BF144A526802F48032002A95
:1008E000F9D0114A126842F400320F4B1A6000BF6F
:1008F0000D4A526802F40032002AF9D0094A5268BF
:1009000022F00302074B5A601A46526842F0020274
:100910005A6000BF034A526802F00802002AF9D068
:10092000704700000010024000700040FFFFC3B796
:100930000000340810B5FFF773FF10BD2DE9F04734
:1009400004460D460027B846B94600261D49601AE0
:100950008C421CD006DC1C48204470B1B0F5806F7E
:100960001FD10FE0B0F5806F16D0B0F56C4F18D1E5
:100970000320FFF779FE074614E00220FFF774FE1C
:1009800007460FE00220FFF76FFE07460AE002204D
:10099000FFF76AFE074605E00220FFF765FE0746FF
:1009A00000E000BF00BF07EB5500B0FBF5F64FF6C7
:1009B000F07006EA000806F00F0948EA0900A06096
:1009C000BDE8F087004C004000BCFFBF014648680E
:1009D000C0F308007047000010B504462049601AB3
:1009E0008C4228D006DC1F48204490B1B0F5806FBF
:1009F00033D117E0B0F5806F26D0B0F56C4F2CD115
:100A000040F20E30FFF7FCFE40F20E30FFF7E8FE3A
:100A100024E040F21140FFF7F3FE40F21140FFF7EF
:100A2000DFFE1BE040F21240FFF7EAFE40F2124008
:100A3000FFF7D6FE12E040F21340FFF7E1FE40F26E
:100A40001340FFF7CDFE09E040F21440FFF7D8FE57
:100A500040F21440FFF7C4FE00E000BF00BF10BD2D
:100A6000004C004000BCFFBFC16841F40051C160B0
:100A70007047000010B5044640F20260FFF7A0FE88
:100A80004FF4C060FFF79CFE40F20E60FFF798FE47
:100A90004FF40073032218211948FFF7F3FC4FF4B9
:100AA0008063032204211648FFF7ECFC1548FFF78A
:100AB00093FF21461348FFF741FF0021114800F042
:100AC0005EF800210F4800F06CF800210D4800F09E
:100AD00044F804210B4800F048F80821094800F0C8
:100AE00056F840F20531074800F00EF8032211468F
:100AF0002520FFF74DFD0348FFF7B6FF10BD0000AE
:100B0000000801400038014010B500EB9112126856
:100B100001F01F040123A3401A4300EB91131A6054
:100B200010BD70B5024600230024C1F3891010588F
:100B300001F01F060125B54000EA050302EB9150C4
:100B40000068C1F304460125B54000EA050414B16C
:100B50000BB1012070BD0020FCE7C26822F4C06226
:100B6000C260C2680A43C2607047C26822F00402D1
:100B7000C260C26801F004031A43C2607047026990
:100B800022F44052026102690A4302617047C2685E
:100B900022F00802C260C26801F008031A43C26072
:100BA0007047C26822F48052C260C2680A43C260C1
:100BB00070474FF04070E1EE100A7047DC0B000800
:100BC000000000200C0000006C010008E80B000889
:100BD0000C0000202C090000880100080000000023
:080BE00000000000000000000D
:0400000508000131BD
:00000001FF
